:100000000C9412030C9459030C9459030C94590347
:100010000C9459030C9459030C9459030C945903F0
:100020000C9459030C9459030C941C250C94F02542
:100030000C946B200C9459030C9459030C945903A1
:100040000C9459030C9459030C9459030C945903C0
:100050000C9459030C94C2200C9459030C9459032A
:100060000C9459030C9459030C9459030C945903A0
:100070000C9459030C9459030C9459030C94590390
:100080000C9459030C9459030C9459030C94590380
:100090000C9459030C9459030C9459030C94590370
:1000A0000C9459030C9459030C94590329001E0015
:1000B0001F0020002100220023002400250026002C
:1000C00027002D002E0031002B0014001A0008001C
:1000D000150017001C0018000C00120013002F0060
:1000E00030003500E00004001600070009000A0097
:1000F0000B000D000E000F003300340000002A003A
:10010000E10000001D001B000600190005001100A1
:100110001000360037003800E50028000000E2003B
:10012000E700000000002C000000000000000000BC
:1001300000000251E6000151B3003A003B003C00D0
:100140003D003E003F0040004100420043004400AB
:10015000450049003900B2005200010001000100D1
:100160000100CD5CCC5CAA005200A900A8004600AA
:100170000100500051004F00010001000100C95C66
:10018000C85C500051004F0000004C00010000000E
:1001900001000100010001000100C75CC65CC35CF6
:1001A000C45CC55C010058000000010001000000B3
:1001B00000002C0000000000000000000000010012
:1001C000010001005300540055005600570068001C
:1001D00069006A006B006C006D006E006F007000BB
:1001E00063005F0060006100080009003302010045
:1001F00001000100520052000100010067005C0094
:100200005D005E00060007002002010001005000B2
:1002100051004F00000001006200000059005A0028
:100220005B00040005000100010001000100010065
:1002300001005800000085000100000000002C00B3
:100240000000000000000000000001000100035158
:1002500053005400550056005700680069006A00BA
:100260006B006C006D006E006F00700063005F003B
:100270006000610008000900330201000100010074
:10028000520052000100005C67005C005D005E00EF
:1002900006000700200201000100500051004F003D
:1002A000000001006200000059005A005B000400D9
:1002B00005000100010001000100010001005800DB
:1002C000000085000100000000002C00000000007C
:1002D00000000000000001000100010000047F3F59
:1002E0001F643214643214783C1E1E140A05222343
:1002F000252628292A2C2D2F3032333536383A3B03
:100300003D3E4042434547494A4C4E505153555754
:10031000595A5C5E6062646668696B6D6F71737573
:1003200077797B7D7F81838587898A8C8E90929473
:1003300096989A9C9E9FA1A3A5A7A8AAACAEAFB180
:10034000B3B4B6B8B9BBBCBEBFC1C2C3C5C6C7C9CA
:10035000CACBCCCDCED0D1D2D2D3D4D5D6D7D7D884
:10036000D9D9DADADBDBDBDCDCDCDCDCDDDDDDDDD6
:10037000DCDCDCDCDCDBDBDBDADAD9D9D8D7D7D6DE
:10038000D5D4D3D2D2D1D0CECDCCCBCAC9C7C6C595
:10039000C3C2C1BFBEBCBBB9B8B6B4B3B1AFAEACDB
:1003A000AAA8A7A5A3A19F9E9C9A98969492908E86
:1003B0008C8A89878583817F7D7B79777573716F5F
:1003C0006D6B6968666462605E5C5A59575553513B
:1003D000504E4C4A4947454342403E3D3B3A3836F1
:1003E000353332302F2D2C2A292826252322FFAA07
:1003F0007F554000010101010101010101020202DA
:1004000002020202020203030303030303030404C0
:10041000040404040405050505050606060606078A
:100420000707070708080808090909090A0A0A0B43
:100430000B0B0C0C0C0D0D0D0E0E0E0F0F0F1010E4
:10044000111111121213131414151516161717186B
:100450001819191A1A1B1B1C1D1D1E1E1F202021D6
:100460002222232424252626272829292A2B2C2D1D
:100470002D2E2F30313232333435363738393A3B3E
:100480003C3D3E3F404142434445464748494A4C33
:100490004D4E4F50515354555658595A5B5D5E5FFF
:1004A000616264656668696B6C6D6F707273757795
:1004B000787A7B7D7E8082838587888A8C8E8F91F7
:1004C000939596989A9C9EA0A2A3A5A7A9ABADAF21
:1004D000B1B3B5B7BABCBEC0C2C4C6C9CBCDCFD10B
:1004E000D4D6D8DBDDDFE2E4E7E9EBEEF0F3F5F8B4
:1004F000FAFDFF100354006F006B0079006F0036A7
:1005000000300000001E0354006F006B0079006F84
:100510000020004B006500790062006F00610072EE
:1005200000640000000403090409023B000201000A
:10053000A03209040000010301010009211101009A
:10054000012240000705810308000A090401000197
:1005500003000000092111010001226D000705823E
:100560000320000A120100020000000836546060F7
:1005700001000102000105010980A10185031901A3
:100580002AB700150126B700950175108100C00536
:100590000C0901A101850419012AA002150126A058
:1005A00002950175108100C005010906A1018505AC
:1005B000050719E029E71500250195087501810255
:1005C0000507190029EF1500250195F07501810235
:1005D0000508190129059505750191029501750315
:1005E0009101C005010906A101050719E029E715D8
:1005F00000250195087501810295017508810105A5
:1006000007190029FF150026FF00950675088100CF
:1006100005081901290595057501910295017503D4
:100620009101C00011241FBECFEFDAE0DEBFCDBFC5
:1006300004B603FE27C08091EE029091EF02A091D4
:10064000F002B091F1028730904BA740B04BD1F44B
:100650001092EE021092EF021092F0021092F1024C
:1006600014BE84B7877F84BF0FB6F894A895809195
:100670006000886180936000109260000FBEE0E02F
:10068000F8E3099511E0A0E0B1E0E0E3F2E502C093
:1006900005900D92AA3BB107D9F722E0AAEBB1E091
:1006A00001C01D92AE3EB207E1F70E9496130C9472
:1006B000AF280C94000081E0089581E008950C9427
:1006C0005D0308950C9461031F93CF93DF9300D0D3
:1006D00000D00F92CDB7DEB749835A836B83309138
:1006E000BC0189819A8131111DC06623B9F0222392
:1006F000A9F00E948B09182F682F89819A810E9486
:10070000370969817A81812F0F900F900F900F9098
:100710000F90DF91CF911F910C94DD0F0E94630920
:10072000182FEFCF0E948B0969817A81EDCFFC01F0
:10073000262F408151816281738184810C946403EE
:1007400081E00895CF93DF93EC0160E00E9497036E
:10075000BE01DF91CF910C9462030E94FB110E94B5
:100760002D040E94B81C0C9420120C94231208959E
:100770000E94E0070E94B7032FEF84E39CE0215022
:1007800080409040E1F700C000000C94E6200F93F9
:100790001F93CF93DF938C0161E00E949703EC01DC
:1007A000B8010E945F03882309F441C0B801CE015B
:1007B0000E94241C8823D9F1B801CE010E94601D3B
:1007C0008823A9F1B801CE010E94B21D882379F1D6
:1007D000B801CE010E94D51E882349F1B801CE018F
:1007E0000E947D1A882319F1F8018281882361F023
:1007F000CB35FDE5DF0721F170F4C115ECE5DE072F
:10080000A1F0CF3DDC45C9F0C801DF91CF911F9128
:100810000F910C945B03CC358DE5D807A1F0CD3555
:10082000DD4591F70E94680DEFCF0E94B80380E08C
:10083000DF91CF911F910F9108950E94DF0EF7CFA6
:100840000E94710DE1CF0E94740DDECF08950C94CB
:10085000260481E008950C9429040895CF93C82FAD
:100860000E9427048C2FCF910C942B04CF93DF93FD
:10087000CDB7DEB72B970FB6F894DEBF0FBECDBF56
:100880004F83588769877A878B8761110E94970DFC
:100890001E821D8285E0FE013796DE0111960190D1
:1008A0000D928A95E1F78C819D81892B89F449818C
:1008B0005A816B817C818D819E810E94970C2B9641
:1008C0000FB6F894DEBF0FBECDBFDF91CF91089574
:1008D00089819A8189238F3F51F3CE0101960E942D
:1008E000A0038111E4CFEBCFFC01808191810C94B6
:1008F000CD09CF93C82F882309F488C08238C1F46A
:100900000E94041F81FD82C089E30E94310D0E9474
:10091000C70D2FEF81EE94E0215080409040E1F729
:1009200000C0000089E30E94380DCF910C94C70DE0
:100930008338A1F40E94041F80FD68C083E50E94F3
:10094000310D0E94C70D2FEF81EE94E021508040C1
:100950009040E1F700C0000083E5E5CF8438A1F4C2
:100960000E94041F82FD52C087E40E94310D0E9444
:10097000C70D2FEF81EE94E0215080409040E1F7C9
:1009800000C0000087E4CFCF8CEF8C0F813AB8F421
:100990008C2F0E941D14811139C06C2F8091000191
:1009A000909101010E946A1F882329F08C2F0E94D8
:1009B000380D0E94C70D8C2F0E94310DB6CF80E2FA
:1009C0008C0F883048F4C77081E001C0880FCA9549
:1009D000EAF70E947A0DA9CFEBE5EC0FE33040F483
:1009E000F0E0E25BFE4F808190E0CF910C942A1FF3
:1009F000C85AC73158F4EC2FF0E0EE0FFF1FE05E4D
:100A0000FE4F80819181CF910C94401FCF9108952A
:100A1000882309F44BC0823871F40E94041F81FFBF
:100A200045C089E30E94310D0E94C70D89E30E94F1
:100A3000380D0C94C70D833859F40E94041F80FFB1
:100A400035C083E50E94310D0E94C70D83E5EFCFCD
:100A5000843859F40E94041F82FF28C087E40E9452
:100A6000310D0E94C70D87E4E2CF9CEF980F913AB9
:100A7000F0F290E2980F983050F4877091E001C046
:100A8000990F8A95EAF7892F0E94800DD2CF9BE5B6
:100A9000980F933020F490E080E00C942A1F885A3D
:100AA000873120F490E080E00C94401F08951F935C
:100AB000CF93DF93182FEB010E947904209731F434
:100AC000812FDF91CF911F910C9408058FE99FE052
:100AD0000197F1F700C000002197F0CF70E060E0CF
:100AE000893311F460E570E00C945705882321F0F8
:100AF0000E947A0D0C94C70D0895882321F00E945E
:100B0000800D0C94C70D0895BF92CF92DF92EF92A3
:100B1000FF920F931F93CF93DF936C01D62FC72FB4
:100B2000FC011281058102950F700E944F0DE82E85
:100B30008823A1F0E12E112389F08C2F807F80344F
:100B400029F080E28D0FE12C883040F082E00E9495
:100B5000180E0E944F0D91E0E82EE926BC2EB294AB
:100B60009FE0B922EB2DF0E0EF54F74D0C940A28EA
:100B70000C2F0F70C07F11F00295007F1123A9F098
:100B8000002359F080E28D0F883010F0D11109C098
:100B9000802F0E947A0D0E94C70D8D2F0E9479042C
:100BA00014C0802F0E948A0DF6CF8D2F0E94080559
:100BB000002359F080E28D0F883010F0D1112CC045
:100BC000802F0E94800D0E94C70D2B2D2850330BC3
:100BD0002430310520F40E94041F0E942E04EE20D0
:100BE00009F493C10E944B0D80FD8FC1F601128262
:100BF0000E94450D0E949B08C6010E94A6070E9404
:100C0000450DDF91CF911F910F91FF90EF90DF90F5
:100C1000CF90BF900C94BC08802F0E94900DD3CF32
:100C2000FC2FFF70FF2EC07FC03219F0F29480EFCE
:100C3000F822DD2369F0D13049F1112391F100232D
:100C400051F1F601858180FFA8CF8F70858323C085
:100C5000112381F0011106C00E94AA0D8F290E9464
:100C60007605B3CF0130C1F70E94AA0D8F290E94EB
:100C7000B00DABCF011106C00E94BD0D8F2D0E949B
:100C80007D05A3CF013009F4A0CFF6CF112329F0C1
:100C9000063008F09ACF8F2DE2CF053008F095CFBF
:100CA000EDCF002359F3D93349F4FFEF27EE33E0BA
:100CB000F15020403040E1F700C000008D2F0E942D
:100CC000080583CF8C2F86958695837069F08130D7
:100CD00009F07BCF8D2F9C2F9370111102C090E0F3
:100CE00080E00E94401F71CF8D2F9C2F93701111B7
:100CF00002C090E080E00E942A1F67CF8C2F837093
:100D000009F041C0111161CF4D2F429546954770B2
:100D1000440F440F0D2F0F7010E030E020E0042E40
:100D200004C0000F111F221F331F0A94D2F760E086
:100D300070E0CB01D4FF0FC06FE070E080E090E086
:100D400004C0660F771F881F991F4A95D2F76095D8
:100D5000709580959095C695C695C370602B712B44
:100D6000822B932BC23049F058F4C13019F00E9405
:100D70004D082BCF0E943B0828CF0E945F0825CF4B
:100D80000E94390822CF8695112311F08C2F817093
:100D9000882309F41ACF4D2F429546954770440F8A
:100DA000440F0D2F0F7010E030E020E0042E04C03F
:100DB000000F111F221F331F0A94D2F760E070E06A
:100DC000CB01D4FF0FC06FE070E080E090E004C082
:100DD000660F771F881F991F4A95D2F76095709507
:100DE00080959095C695C695C370602B712B822B0C
:100DF000932BC23049F058F4C13019F00E94120907
:100E0000E4CE0E940009E1CE0E942409DECE0E94B9
:100E10007508DBCECF70112329F08C2F0E949B0820
:100E20008D2F1DCF8D2F0E947D058C2F0E94BC0819
:100E3000CCCED23F89F160F4D03FC9F0D13F29F147
:100E4000112309F442C00111A8CE8C2F8F7121C04B
:100E5000D33F39F1D43FA1F7112369F1CF718C2F22
:100E60000E949B0863E08C2F0E94FD0DAECE1123E3
:100E700041F0053008F0A9CE8C2F8F710E94DF0859
:100E8000A4CE063008F0A1CEF7CF8C2F8F7111239E
:100E900069F20E949B0899CE8C2F8F711123C9F3A0
:100EA000C5CF112329F08C2F8F710E9486088DCE1B
:100EB0000E9481088ACE81E00E94180E023008F458
:100EC00084CE82E00E94180E80CE002359F0D933E0
:100ED00009F0F4CE8FEF97EEE3E081509040E040D0
:100EE000E1F7EACE8C2F8F71A1CF4C2F4F706D2F71
:100EF000C6010E94D90F0E94FB0967CE4C2F4F708C
:100F00006D2FC6010E94DC0F60CEDF91CF911F9143
:100F10000F91FF90EF90DF90CF90BF9008950F93C7
:100F20001F93CF93DF93EC01688179818A810E94BE
:100F3000D7098C010E9436090E943808B801CE01F9
:100F4000DF91CF911F910F910C948405CF93DF9384
:100F5000EC018B819C81892B29F0888199818923DF
:100F60008F3F59F4DF91CF910895CE010E948F07F2
:100F7000CE01DF91CF910C94A203CE010E94C70352
:100F80008111F3CF0E944F0D882361F38A8188235A
:100F900049F382E0DF91CF910C94180E90E080E04D
:100FA0000E942A1F90E080E00E94401F0E94970D3F
:100FB0000E94A70D0C94C70D0E943F0D0C94CE0704
:100FC0000E94870D0C94DC07E92FE295EF70E25048
:100FD000EE3070F4F0E0EF53F74D0C940A28803FA8
:100FE00019F020F4883E20F481E00895843FE1F375
:100FF00080E00895883EC0F3813FD1F7F5CF93FBA1
:10100000882780F90895FC01808191810E94CD0993
:101010000C94E407CF93DF9300D000D00F92CDB7AC
:10102000DEB70F900F900F900F900F90DF91CF9140
:101030000895CF93DF9300D000D000D0CDB7DEB7B6
:1010400026960FB6F894DEBF0FBECDBFDF91CF91CD
:10105000089508950C9429080E942A086093EE01CF
:101060007093EF018093F0019093F1010C94CE07FF
:1010700008950C942C080F931F930091EE0110918A
:10108000EF012091F0013091F101602B712B822B47
:10109000932B1F910F910C942C080F931F93009189
:1010A000EE011091EF012091F0013091F1016023E8
:1010B0007123822393231F910F910C942C080F937B
:1010C0001F930091EE011091EF012091F0013091FA
:1010D000F10160277127822793271F910F910C94AC
:1010E0002C080C9429080C9471080E9473086093D2
:1010F000EA017093EB018093EC019093ED010C9465
:10110000CE0760E070E0CB010C9475080F931F933D
:1011100041E050E060E070E08A019B0104C0000FF4
:10112000111F221F331F8A95D2F7C901B8011F91E1
:101130000F910C9475080F931F9341E050E060E00D
:1011400070E004C0440F551F661F771F8A95D2F7C1
:101150008091EA019091EB01A091EC01B091ED0139
:101160008A019B01082B192B2A2B3B2BC901B801A3
:101170001F910F910C9475080F931F9341E050E05D
:1011800060E070E004C0440F551F661F771F8A950A
:10119000D2F7CB01BA01609570958095909500913A
:1011A000EA011091EB012091EC013091ED016023F7
:1011B0007123822393231F910F910C9475080F9331
:1011C0001F9341E050E060E070E004C0440F551F01
:1011D000661F771F8A95D2F78091EA019091EB0103
:1011E000A091EC01B091ED018A019B01082719271C
:1011F0002A273B27C901B8011F910F910C9475084C
:101200000F931F930091EA011091EB012091EC01E3
:101210003091ED01602B712B822B932B1F910F913D
:101220000C9475080F931F930091EA011091EB0144
:101230002091EC013091ED016023712382239323EF
:101240001F910F910C9475080F931F930091EA0161
:101250001091EB012091EC013091ED016027712795
:10126000822793271F910F910C94750808952EE003
:10127000929F800D1124982F977041E001C0440F78
:101280009A95EAF786958695869595E0899FF0016F
:101290001124E354FE4F90E080E070E05191DF01B3
:1012A00011979B01082E02C0369527950A94E2F704
:1012B000217021952527242325272C9301968530FD
:1012C000910561F708952EE0929F800D1124982FCB
:1012D000977086958695869525E0829FF00111246A
:1012E000E354FE4F50E040E080E0219130E0092ED1
:1012F00002C0369527950A94E2F721703327042E11
:1013000001C0220F0A94EAF7822B4F5F5F4F4530EE
:10131000510559F70895BF92CF92DF92EF92FF9255
:101320000F931F93CF93DF938C01C090EA01D0906D
:10133000EB01E090EC01F090ED018091EE019091D5
:10134000EF01A091F001B091F101C82AD92AEA2A4F
:10135000FB2ACFE1D0E0BC2ED701C6010C2E04C081
:10136000B695A795979587950A94D2F780FD0EC0FC
:10137000219788F7B12C8B2DDF91CF911F910F9181
:10138000FF90EF90DF90CF90BF900895B8018C2F21
:101390000E940311019761F3EECFCF93DF93EC012D
:1013A0000E948B09BE01DF91CF910C9403111F9312
:1013B000CF93DF93EB019091BC01992331F0CB01E6
:1013C000DF91CF911F910C94CD09882379F0CB0147
:1013D0000E948B09182F682FCE010E943709BE0189
:1013E000812FDF91CF911F910C940311CB010E94AB
:1013F0006309182FF4CFEF92FF920F931F93CF93AF
:10140000DF938C01892B81F0F12CEE24E394E80129
:101410002196F8018491843770F4843008F05FC01D
:101420008130B1F08230A1F1DF91CF911F910F9106
:10143000FF90EF900895853709F44CC008F43DC043
:101440009CE7980F903780F78F770E94080549C076
:101450000E5F1F4FFE01849190E2980F983060F468
:101460008770FE2D01C0FF0F8A95EAF78F2F0E942B
:101470009A0D0E94C70D02C00E9479048F2D8150E1
:1014800030F2EFE9FFE03197F1F700C00000F7CF4D
:101490000E5F1F4FFE01849190E2980F983050F438
:1014A0008770FE2D01C0FF0F8A95EAF78F2F0E94EB
:1014B000A00DDFCF0E940805E1CF0E5F1F4FFE0198
:1014C000C491C150D8F28FE99FE00197F1F700C0B5
:1014D0000000F7CF0E5F1F4FFE01F490CFCF0E94A8
:1014E00079048E01CBCF1F93CF93DF93C091F2018C
:1014F00016E08091F3018C1304C0DF91CF911F910E
:101500000895D0E01C9FF0011D9FF00D1124EC50B8
:10151000FE4F4081518162817381848195810E9457
:1015200019082196C770E5CF4091240250912502F9
:1015300060912602709127028091280290912902E1
:101540000C9419081F93CF93DF9380912902807F19
:10155000A9F480912602882389F08091F201C0913C
:10156000F3016091240270912502A0912702B091AD
:101570002802D62FD72316E0C81304C0DF91CF91DD
:101580001F91089590E0109711F0DF3F19F4019634
:101590008770F2CF189F9001199F300D1124F90127
:1015A000EC50FE4F41814713F2CF40814613EFCFFD
:1015B00042814111ECCF438154814A1B5B0B483C73
:1015C000510528F7809129028F708061809329024C
:1015D000F901E750FE4F80818F708061808384E243
:1015E00092E00E94A607DF91CF911F910C94730A9D
:1015F000AF92BF92CF92DF92EF92FF920F931F9321
:10160000CF93DF93CDB7DEB761970FB6F894DEBF07
:101610000FBECDBF8C0185E0F801DE011D96019063
:101620000D928A95E1F7F801E28084E2C82E82E00B
:10163000D82E60912702709128026115710509F476
:101640005AC19091240220912502892F82238F3F35
:1016500009F451C140815181A380B480F0902602E9
:10166000F501E61BF70BFF2009F4F6C08091290273
:10167000382F307FE83CF10508F0AFC0311179C058
:10168000FE2C251323C0941321C0E1101FC08F70BE
:101690008061809329020E94940AC6010E94A607D5
:1016A00080912902F80185838F2D61960FB6F894F9
:1016B000DEBF0FBECDBFDF91CF911F910F91FF9085
:1016C000EF90DF90CF90BF90AF900895AB2829F0B6
:1016D000842F85238F3F09F027C180E0F82FF17018
:1016E000DF2E80FF3CC08091F2012091F30136E0B3
:1016F000821315C04D875E878D859E850E94CD091A
:10170000292F22952F702230F0F0243018F59F7089
:10171000F1F0F8019581907FD1F4D12C1EC090E0BA
:10172000389FF001399FF00D1124EC50FE4F61817C
:10173000651306C06081641303C06281E6120FC0A6
:1017400001968770D5CF9F7011F0882331F3805EAA
:10175000883018F3C8010E94A607FD2CA5CFEE2003
:1017600009F4A2CF80912902816080932902F12C93
:101770009BCF251306C0941304C0F801EE2009F492
:1017800087C0C8010E940308882319F1EE2009F1DF
:1017900080912902803270F020912402309125023C
:1017A00038872F831986BB86AA868C87CE01079639
:1017B0000E94A60786E0F801A4E2B2E001900D9233
:1017C0008A95E1F70E94A20A0E94940AFF24F394EA
:1017D0006BCFC8010E94A607F9CF311113C07A2D33
:1017E000B98AA88A6E2D89890E940A0884E292E04B
:1017F0000E94A60786E0F60111928A95E9F70E94F9
:10180000940AB5CF25130FC094130DC0E1100BC07F
:10181000F8018583C8010E94A60786E0F6011192AF
:101820008A95E9F741CFC8010E940308882389F20D
:10183000EE2079F280912902803208F4BBCF20910A
:101840002402309125023A8329831B82BD82AC8217
:101850008E83CE010196ACCFE83CF10508F03EC086
:10186000FE2CEE2009F4B5CF25132AC0941328C00E
:101870008091290280FD1BC0982F907FC1F0F80154
:101880008583903F31F0982F907F905F8F70892BE8
:101890008583C8010E94A60786E0F801A4E2B2E0B1
:1018A00001900D928A95E1F70E94940AFDCE86E0A0
:1018B000F801A4E2B2E001900D928A95E1F7F4CE2E
:1018C000C8010E940308811175CF809129028160AF
:1018D00080932902C8010E94A607E6CE7A2DB98A14
:1018E000A88A6E2D89890E940A0886E0F601119265
:1018F0008A95E9F7D9CFEE2009F46BCFC8010E9491
:101900000308F82E882309F464CF86E0F801A4E2E6
:10191000B2E001900D928A95E1F784E292E00E9494
:1019200074040E94A20AC0CF81E08E25D7CE1F93F7
:10193000CF93DF93CDB7DEB72C970FB6F894DEBF09
:101940000FBECDBF4F83588769877A878B879C8767
:10195000CE0107960E94F80A882369F08A859B8544
:10196000892B39F04F815885842F85238F3F09F0CB
:1019700071C016E05FC086E0FE013796DE01119669
:1019800001900D928A95E1F78A859B85892B89F3D1
:101990008F81988589238F3F61F32091F30130E097
:1019A000C9010196877099274091F20148171906DD
:1019B00071F40E94E0071092F3011092F20186E0A8
:1019C000E4E2F2E0DF011D928A95E9F7D2CF96E0DA
:1019D000929FD001939FB00D1124AC50BE4FFE01D9
:1019E000319601900D929A95E1F78093F3010E9450
:1019F000730ABFCF819FC00111248C509E4F0E945B
:101A0000F80A8823E9F0E091F2011E9FF001112409
:101A1000EC50FE4F408151816281738184819581B8
:101A20000E9419088091F20190E001968770992731
:101A30008093F2018091F2019091F3018913DACF42
:101A40002C960FB6F894DEBF0FBECDBFDF91CF91BD
:101A50001F91089569857A858B859C850E94190858
:101A600088CF682F80910001909101010C94EA1FAA
:101A7000682F80910001909101010C94F51F8091D5
:101A80000001909101010C94002080912A0285951B
:101A900085958595089580912A0287700895909183
:101AA0002A02977081E009F480E008959091A402E1
:101AB00092FB222720F9281751F080FB92F990938E
:101AC000A4028091A3029091A4020C945B0E08954D
:101AD0008091A40282FB882780F991E089270C94E9
:101AE000560D81E00C94560D80E00C94560D8091BB
:101AF0004E02089590914E02892B80934E020895D4
:101B0000809590914E02982390934E0208951092E2
:101B10004E02089590914D02892B80934D020895B5
:101B2000809590914D02982390934D0208951092C4
:101B30004D02089590914C02892B80934C02089598
:101B4000809590914C02982390934C0208951092A6
:101B50004C02089580912B02089508950C94AD0DC8
:101B60009091A40292FD08C090912B02981721F049
:101B700080932B020C94AE0D089580912B02882344
:101B800029F010922B0280E00C94AE0D0895E091A4
:101B90000001F091010180914E028083E0910001EB
:101BA000F0910101808190914D02892B8083E09119
:101BB0000001F0910101808190914C02892B80837A
:101BC00090912B02992381F0E0910001F0910101A5
:101BD0008081892B808380910001909101010E9476
:101BE000561F81110E94BD0D80910001909101014D
:101BF0000C94101F08950C94FA0D9091A40292FD7C
:101C000010C098E0899F90011124622B60932A02F2
:101C10000E949B0880912A028595859585950C9454
:101C2000FB0D0C949B0810922A0280E00C94FB0D93
:101C300090912A028095892380932A02282F277069
:101C400039F4282F082E000C330B9217130621F4B9
:101C50009091A40292FF07C08595859585950E9475
:101C6000BC080C94130E08956FEF7FEF90E080E0B6
:101C70000C94992890E080E00E94752821E0893E2C
:101C80009E4F09F020E0822F089582E090E00C94AE
:101C9000672883E090E00C946728CF9384E090E07D
:101CA0000E946728C82F82E290E00E946728982F40
:101CB0008C2FCF910895CF93C92F682F84E090E0A7
:101CC0000E947B286C2F82E290E0CF910C947B28BD
:101CD000AB01BC018FE090E00C948D28AB01BC01FE
:101CE00083E190E00C948D2860E070E0CB010C94CF
:101CF0006E0E60E070E0CB010E94680E0C94740ED2
:101D000069EE7EEF90E080E00E94992860E082E03A
:101D100090E00E947B2860E083E090E00E947B28B6
:101D20001092EE011092EF011092F0011092F10169
:101D300060E084E090E00E947B2860E082E290E036
:101D40000E947B2860E085E090E00E947B2860E0B4
:101D500086E090E00E947B286FEF87E090E00E9491
:101D60007B2840E050E0BA0188E090E00E948D2896
:101D700060E08DE090E00E947B2840E050E0BA01F6
:101D800088E190E00E948D2860E087E190E00E9469
:101D90007B2840E050E0BA018CE190E00E948D2861
:101DA00070E060E080E290E00E94992840E050E01E
:101DB000BA0188E190E00E948D280C94790E0C9471
:101DC000800E682F8EE090E00C947B280E94A72064
:101DD00060935E0270935F02809360029093610251
:101DE00060935A0270935B0280935C0290935D0251
:101DF000089585B7806885BF85B7806885BF0895D9
:101E0000089508950C94000F08950C94040F0E94F7
:101E1000F90E81EE91E10E940A210E94010F0C94BB
:101E2000020F81E008950C94110F089508950E9407
:101E3000150F0C94160F0E9492200E94E9120E9426
:101E4000591B0E949C190C94050F8F929F92AF9280
:101E5000BF92CF92DF92EF92FF920F931F93CF9397
:101E6000DF93CDB7DEB72A970FB6F894DEBF0FBE6B
:101E7000CDBF0E94111381110E94E60E50E5852E00
:101E800052E0952E10E000E0A02E802F0E94251237
:101E90006C01F401E190F1904F01E816F90609F4A4
:101EA0005EC08091620281FD0E942E12C7018C25C6
:101EB0009D25B12CEE24E394F12C9C012E213F2191
:101EC000232B09F446C00E94130F8823A9F0BE8279
:101ED000AF82CE20DF2081E0CD2809F480E0888722
:101EE0000E949B208160782F9A8789874E815F812D
:101EF00068858A850E943604000F111FF801E05B97
:101F0000FD4F80819181E826F926F182E0820E94CE
:101F1000CF190E94B71C0E94041F90914F0289178D
:101F2000A9F10E94041F80934F022A960FB6F894DD
:101F3000DEBF0FBECDBFDF91CF911F910F91FF90FC
:101F4000EF90DF90CF90BF90AF909F908F900C94C8
:101F50002E04B394EE0CFF1CFEE0BF12AECF0F5F59
:101F60001F4F0530110509F08FCF8FEF89838A83CA
:101F70001B820E949B208160782F9D838C834981E6
:101F80005A816B818D810E943604C1CF2A960FB68B
:101F9000F894DEBF0FBECDBFDF91CF911F910F919F
:101FA000FF90EF90DF90CF90BF90AF909F908F9079
:101FB000089590E080E008950895972F70E02EE056
:101FC000929F600D711D1124FB0196E4899FE00D25
:101FD000F11D1124EE0FFF1FE455FF4F85919491E1
:101FE0000895FC01EE0FFF1FE452FD4F859194917F
:101FF0000895CF93DF930E940711EC01811520E52E
:10200000920708F041C0811530E4930708F0B4C08E
:10201000803E910518F5803C910508F09DC0883AF6
:10202000910570F4853A910508F08EC081309105D4
:10203000F9F00097E9F00497D8F4D0E0C0E018C0B8
:102040008F3B9105D0F7C85AD0E0CC0FDD1FCF5A97
:10205000DE4F0990D881C02DD4640AC0811590420A
:1020600058F4C11581E0D80718F4C83ED10528F707
:10207000CE01DF91CF910895C11590E3D90708F003
:1020800071C0CE019F706AC0811525E5920758F591
:10209000811534E5930708F09EC0811542E5940749
:1020A00050F4C11581E5D80708F469C0DC2FCC27AE
:1020B000C16FD06ADDCF982F969596959E012370BB
:1020C0003327C115D34508F077C0C1E0D0E002C086
:1020D000CC0FDD1F2A95E2F720E2929FC001112468
:1020E000C82BD92B67C0C11589E5D807A8F4C1153D
:1020F00098E5D90708F074C0C11526E5D20708F0A5
:102100009CCF8C2F0E949E11C82FD0E0DC2FCC27B3
:10211000CC27DF71D062ACCFC1153AE5D30708F404
:1021200064C0CE0190568115904208F086CF8D2F65
:102130008F710E949E1190E0982F882788279F71A9
:102140009C012C2BE901E6CFC55AD0E0C158DE4FE7
:10215000C881D0E0D0648CCF805C91090E94F10FDF
:10216000EC0186CFCE019927D3FF03C0EC01D86CD8
:102170007FCFEC01D06C7CCFDF70D06A79CFCE01FD
:10218000E4E096958795EA95E1F783702C2F2695E4
:102190002695237090E2299F90011124382B8C2FD3
:1021A0008370C1E0D0E002C0CC0FDD1F8A95E2F75A
:1021B000C22BD32BDC685CCFC1E0D0E002C0CC0FD7
:1021C000DD1F2A95E2F730E2939FC0011124C82B4E
:1021D000D92BDA684DCFD82FCC27C46FD06A48CF1F
:1021E000DC2FCC27C06FD06A43CF8C2F8F700E941A
:1021F0009E1134E0D695C7953A95E1F7CF709C2FA4
:10220000EC01D06935CF0E94DD0F0C94F90F8238B4
:102210009105B1F1B0F48133910509F475C048F42A
:102220008932910509F469C08A32910509F473C0B5
:1022300008958533910509F459C08933910501F159
:102240000895833E9105A9F138F4803E9105F9F097
:10225000823E910549F10895863E9105A9F1873E98
:102260009105C9F1843E910519F52091A40221FF41
:102270001FC08091A30284FD14C087EE90E00895F2
:102280002091A3022370A1F080EE90E008952091A8
:10229000A30220FD47C03091A40230FF09C024FFF3
:1022A00044C090E080E004C02091A30222FDF7CF5B
:1022B00008952091A30222FD3BC03091A40230FD7D
:1022C000E3CF24FFF5CFEDCF2091A30223FFF0CF82
:1022D00024FDE7CFD2CF2091A30223FD2CC0309163
:1022E000A40231FFEECF84EE90E008952091A30286
:1022F00025FFDECF89E290E008952091A30225FF1B
:10230000D7CF85E390E008952091A30226FFD0CF98
:102310008AE290E008952091A30226FFC9CF81E3CD
:1023200090E0089589E390E0089583EE90E00895A9
:1023300082EE90E0089586EE90E008959091A302D9
:1023400092FF06C0282F28712830F9F4877F846017
:1023500093FF06C0282F28712831F1F4877E84610D
:102360002091A40220FF06C0382F38713830D9F4EC
:10237000877F816021FF06C0282F28712831D1F482
:10238000877E816194FD877E0895282F24712430F3
:10239000F9F68B7F8860DCCF282F2471243101F778
:1023A0008B7E8861DDCF382F3171313019F78E7F08
:1023B0008860E0CF282F2171213121F78E7E88613E
:1023C000E1CF80E008950C94340E0E9411138FE346
:1023D0009CE90197F1F700C000000E94111380E012
:1023E0000E94251280FF04C00E94E3110C94E62095
:1023F00008950C94E5110E943A0E811102C00E94CA
:10240000DF0E0E94450E809362020E944D0E909353
:10241000A4028093A3020E94F9110E94490E682F22
:1024200070E090E080E00E9439086091EA017091CC
:10243000EB018091EC019091ED010C9473080895EB
:102440000C941F1208950C942212E82FF0E0EE0F66
:10245000FF1FE155FD4F808191810895089580EA25
:102460008A95F1F7089500C008950C942F12F894FE
:10247000E82FE295EF70F0E031A1282F2F7081E076
:1024800090E001C0880F2A95EAF7982F9095932342
:1024900091A392A1892B82A378940895CF93DF937F
:1024A000C2E8D1E089918F3F11F00E94371281E09C
:1024B000C039D807B9F7C0E9D1E089918F3F11F051
:1024C0000E94371281E0C539D807B9F7DF91CF9163
:1024D0000895AF92BF92DF92EF92FF920F931F93F6
:1024E000CF93DF93D82EE92EF62EC62FD0E0AE0183
:1024F0004E575E4F5A01EA0188818F3F09F45FC051
:10250000F894E82FE295EF70F0E021A18F7001E0E0
:1025100010E0A80102C0440F551F8A95E2F7CA01D6
:10252000922F982B91A392A18095892382A37894CE
:102530000E9433120F2C02C0000F111F0A94E2F701
:10254000A80140955095A0E9B1E0ED2DFE2DE12CBC
:102550006D91808191816F3F69F1262F22952F70B7
:1025600030E0E90128A130E06F7002C03595279571
:102570006A95E2F720FD1EC0802B912B918380830A
:10258000EE24E3943296D1E0A539BD0709F7F501B1
:1025900080818F3F11F00E9437126E2D8F2DDF91B9
:1025A000CF911F910F91FF90EF90DF90BF90AF9070
:1025B0000C9435128423952391838083E3CFDF919C
:1025C000CF911F910F91FF90EF90DF90BF90AF9050
:1025D00008950E944E12A5EAB2E011961C921E9236
:1025E000EFEAF2E01182108213961C921E9212976B
:1025F0001382128215961C921E92149715821482D1
:1026000017961C921E9216971782168219961C9284
:102610001E9218971186108685E00E945C130C9418
:10262000AD03FF920F931F93CF93DF93CDB7DEB728
:102630002A970FB6F894DEBF0FBECDBF8E010F5F95
:102640001F4F8AE0F80111928A95E9F7F12C6F2D5E
:10265000C8010E946912F394FEE0FF12F8CF4AE02D
:1026600050E0B80185EA92E00E945A28FF24F394D2
:10267000009709F4F12C892B41F08AE0F801A5EAD2
:10268000B2E001900D928A95E1F72F2D45E06FEAB7
:1026900072E085EA92E00E945D130E94B5038F2DDF
:1026A0002A960FB6F894DEBF0FBECDBFDF91CF9153
:1026B0001F910F91FF9008950895FF920F931F931C
:1026C000CF93DF93F82E092F162FD72FC42F222355
:1026D00049F081E0809365020E949B209093640200
:1026E00080936302809165028823A1F08091630248
:1026F000909164020E94B320059760F0EF2DF02FB7
:10270000A12FBD2F90E080E0D0E08C179D0744F012
:1027100010926502DF91CF911F910F91FF90089564
:10272000219131912D933D930196EFCF0E9412207C
:102730000E945B220E9474220E9486220E94170F30
:10274000FBCF0F931F9341E050E060E070E08A01FF
:102750009B0104C0000F111F221F331F8A95D2F75F
:10276000C901B8010E9439081F910F910C94E0072C
:10277000EBEFE80FEF3308F05AC0F0E0E153F74D0C
:102780000C940A280E94DF0E81E008958091620275
:10279000807F8093620281E08093660208950E94A8
:1027A000B803F2CF90916202892F8E7F90FF8160F3
:1027B0008093620280FDE8CF817F80936202E4CF44
:1027C00090916202892F8D7F91FF826080936202D7
:1027D00081FFDACF809162028160EFCF9091620237
:1027E000892F8B7F92FF84608093620282FDF2CFFB
:1027F000CBCF90916202892F877F93FF886080936F
:10280000620283FDE7CFC0CF0E94E0079091A30250
:10281000892F97FB87F980588093A302B5CF80E07A
:102820000E94A113B1CF8953FBCF8D51F9CF80E026
:10283000089580E008950C941914CF93C82F8091C7
:102840006602882331F0813099F01092660280E0B0
:102850000DC00E94770D8232D1F78C2F0E9419147F
:10286000811116C08C2F0E94B8138170CF910895EA
:102870000E94770D823289F38C2F0E941B148111E4
:1028800005C0C43171F038F4CB3079F781E0EDCF79
:1028900081E090E0EACFC93221F0C833B9F380E09B
:1028A000E4CF10926602FBCFEF92FF920F931F933B
:1028B000CF93DF93EB01E82FD11110C0442321F017
:1028C000F0E0ED50FC4FE4916E2F7E2F8E2FDF91C4
:1028D000CF911F910F91FF90EF9008950D2F10E071
:1028E000282F30E0442329F02D503C4FF90124914A
:1028F00030E0F6E0CF9FC0011124EFEFF0E0BF0120
:102900000E94C027AB018C2F90E0880F991FA5E58E
:10291000A49FB001A59F700D1124861B970B982FC3
:10292000990F980FBF01601B710B629FD001639FCD
:10293000B00D729FB00D11248B2F9D9FB0011124FB
:10294000672F7727EF01C61BD70BBE01629FE001FF
:10295000639FD00D729FD00D11247F01E91AF108F9
:10296000E09EB001E19E700DF09E700D1124672F66
:102970007727E61BF70BE29F8001E39F100DF29F84
:10298000100D1124E12F722F4230510599F048F4B7
:102990004115510569F04130510581F0EB2F8D2F24
:1029A00007C04430510569F080F046305105B1F759
:1029B0006E2F8DCFE22F7B2F812FFACFE22F7D2F2D
:1029C000F7CFEB2F822F712FF3CF7B2F822FED2F9D
:1029D000EFCF41E00C94541408950C94E914CF9374
:1029E000DF93762FE901682F842F0E94ED147983FD
:1029F00068838A83DF91CF9108958091B902982FDF
:102A00009E7F29F4817082608093B90208958A3490
:102A1000E8F381708864F8CF88E090E00C946F2828
:102A2000CF92DF92EF92FF926B017C010E94FD1426
:102A3000B701A60188E090E0FF90EF90DF90CF9083
:102A40000C948D28E9EBF2E083E0808311828FEF14
:102A500082838383148260817181828193810C944B
:102A600010158091B90280FF02C08695089580E01C
:102A700008959091BD02933018F49F5F9093BD022A
:102A8000882351F06091B9027091BA028091BB0223
:102A90009091BC020C941015089581E00C943915A6
:102AA0009091BD02992319F091509093BD02882313
:102AB00051F06091B9027091BA028091BB0290917D
:102AC000BC020C941015089581E00C94501570E030
:102AD0000C94C81C609106018091B90280FF0AC065
:102AE0008091050123E0829FC001112482549D4FF3
:102AF0000C946715809107019091080123E0829F53
:102B0000F0011124E254FD4F891750F71182108211
:102B100012828F5F3396F8CF9091B90290FF14C064
:102B2000909107012091080133E0939FF001112457
:102B3000E254FD4F921710F00C946A158183608364
:102B400042839F5F3396F6CF0895CF93DF9300D0F3
:102B50000F92CDB7DEB79091B90290FF0AC09E01E7
:102B60002F5F3F4F0E94EF144B8169818A810E9441
:102B70008C150F900F900F90DF91CF910895CF9308
:102B8000DF93EC01EC81F0E0E251FD4F4491E9EB81
:102B9000F2E0628181810E94A5158C818F5F8C8318
:102BA000DF91CF910895CF93DF93EC01E9EBF2E051
:102BB000438162818C810E94A5158C818F5F8C83FB
:102BC000DF91CF9108950F931F93CF93DF9300D0A0
:102BD0000F92CDB7DEB78C018091670281110AC0D8
:102BE0009E012F5F3F4F4FEF6FEF0E94EF148A81DE
:102BF00080936702F8016481613069F08091670217
:102C000040E0662361F040E0623011F440916702D9
:102C100080E060E004C06091670240E080E00E94D4
:102C20008C15F801848190E0019663E070E00E94C9
:102C3000D42784830F900F900F90DF91CF911F9135
:102C40000F910895AF92BF92CF92DF92EF92FF92D1
:102C50000F931F93CF93DF9300D00F92CDB7DEB7C2
:102C6000182FF62E042FE22E9091B90290FF29C062
:102C7000E92FE695AE2FB0E0AB56BE4F8C91809316
:102C800071029E7F923059F59E012F5F3F4F812F39
:102C90000E94EF144B8169818A810E948C151093E8
:102CA000BA02F092BB020093BC02EE2051F0609198
:102CB000B9027091BA028091BB029091BC020E944D
:102CC00010150F900F900F90DF91CF911F910F91E2
:102CD000FF90EF90DF90CF90BF90AF90089582303B
:102CE00019F40091BC02DBCF863019F41091BA02BE
:102CF000D6CF8930D9F3893191F6E9518E2F817081
:102D0000D82EE695F0E0E251FC4FA590B490C12C8E
:102D1000BB2460910901C61618F00E946A15BFCF46
:102D20002C2D30E0A29EC001A39E900DB29E900D6E
:102D3000112470E00E94C027812FD11013C0860F8C
:102D400040910701420F532F511D9A01220F331F4B
:102D5000240F351F22543D4F402F6F2D0E94EF143A
:102D6000C394D7CF861BECCFE9EBF2E09181282FFB
:102D7000438162818CE0890F0C94221681E00C94CF
:102D8000B416E9EBF2E09181282F4381628184EF50
:102D9000890F0C94221681E00C94C116E9EBF2E045
:102DA00062812CE0620F08F46FEF282F438181814C
:102DB0000C94221681E00C94CE16E9EBF2E06281CD
:102DC0002CE0621B08F460E0282F438181810C9481
:102DD000221681E00C94DD16E9EBF2E043812CE051
:102DE000420F08F44FEF282F628181810C94221644
:102DF00081E00C94EC16E9EBF2E043812CE0421BFD
:102E000008F440E0282F628181810C94221681E031
:102E10000C94FB1620E00C942216EF92FF921F9365
:102E2000CF93DF93EC0110E0EE24EA94F12C609153
:102E30000901161770F00E946A159A818C8190FF23
:102E400027C08F5F8C83DF91CF911F91FF90EF9010
:102E5000089520910701422F410F5527551FCA01A0
:102E60009A01220F331F280F391F22543D4F70E063
:102E7000C7010E94D427962F8C814091BC0260919B
:102E8000BB02199F800D11240E94EF141F5FCFCF4A
:102E90008150D8CFAF92BF92CF92DF92EF92FF9244
:102EA0000F931F93CF93DF93FC0182810FEF80FF7D
:102EB00001E010E04AE0A42E809109011817C8F043
:102EC0000E946A1580916902013009F055C0811194
:102ED00002C080910901815080936902DF91CF91F6
:102EE0001F910F91FF90EF90DF90CF90BF90AF9028
:102EF0000895C0910701C12ED12CCC0DDD2DD11D1F
:102F0000CE01880F991FC80FD91FC254DD4F1982F7
:102F100018821A8234E0E32EF12CB12C80916902E0
:102F20008B0D8B301CF16A2D0E94B227892F082E41
:102F3000000C990BC816D90691F48091BC028E9DA5
:102F4000A0018F9D500D1124559547955595479596
:102F50009E016091BB028091BA020E94EF14B00EF4
:102F6000F1E0EF1AF108D1F61F5FA6CF87FFDFCFA0
:102F700090910901890FDBCF90E0019660910901E2
:102F800070E00E94D427A8CF0F931F93CF93DF93B5
:102F9000809107019091080123E0829FF0011124A4
:102FA000E254FD4F891740F1C0E0D3E06091090180
:102FB000C61740F10E946A152091030180916802B2
:102FC000820F8093680290910401920F9093040104
:102FD000191654F4082E000C990B40910901415028
:102FE000550B841795071CF0219520930301DF9161
:102FF000CF911F910F9108951182108212828F5FDD
:103000003396D0CF0C2F10E070E0C8010E94D42777
:1030100020910701820F482F50E020916802022E74
:10302000000C330B02171307BCF020910401022E91
:10303000000C330B201731077CF08D9F9001112479
:1030400022543D4F4091BC026091BB028091BA0274
:103050000E94EF14CF5FAACFFA01EE0FFF1FE40F1B
:10306000F51FE254FD4F118210821282F3CF8F922E
:103070009F92AF92BF92CF92DF92EF92FF920F9307
:103080001F93CF93DF93EC014C81042F10E0980144
:10309000D8010E9418289B01AC010E942E284B01E8
:1030A0005C01E0E2F0E0E01BF10BA5E5B0E0AC0173
:1030B0009B010E942E286B017C019F01DF010E9471
:1030C00010289B01AC010E9439289B01AC01280DFE
:1030D000391D4A1D5B1DC701B6010E94E827F22E6B
:1030E000822F90E039E23F1560F143E0249F900188
:1030F000112435952795122F109500E085E5E82ECF
:10310000EF1880910901081758F10E946A159C81F7
:1031100081E0992319F0903219F48FEF8093020126
:1031200080910201890F8C83DF91CF911F910F91C4
:10313000FF90EF90DF90CF90BF90AF909F908F90D7
:10314000089525E530E0B901681B790B9B01220F3A
:10315000331F260F371F37FFCCCF2F5F3F4FC9CF0D
:103160008E2D01FD8F2D20910701622F600F772793
:10317000771F9B01220F331F260F371F22543D4F0D
:10318000412F6091BB020E94EF140F5FBACF0F93E3
:103190001F93CF93DF93EC0110E000E090910901C1
:1031A0009017110609F06CF40E946A158C8190E06A
:1031B0000196817099278C83DF91CF911F910F9198
:1031C000089520910701A801420F511D9A01220F75
:1031D000331F240F351F22543D4F4C816091BB0299
:1031E0008091BA0296959017110651F04CF0442345
:1031F00049F04091BC020E94EF140F5F1F4FCECFE9
:103200004423B9F340E0F7CFE9EBF2E080818E7F11
:10321000808360817181828193810E941015109258
:1032200072022FEF80E792E0215080409040E1F75A
:1032300000C000000C946A156091B902669570E0B8
:103240004BE050E08AE091E00E944D28892B19F470
:1032500081E0809372020E949B2090936B02809386
:103260006A0208959091B90290FF35C09170811162
:1032700028C092609093B902662351F06091B90220
:103280007091BA028091BB029091BC020E9410150D
:103290006091B902669570E04BE050E08AE091E001
:1032A0000E944D28892BA1F01092720281E0809338
:1032B0006D024091BC026091BB028091BA020C94F5
:1032C0000A17853210F09864D5CF880F982BD2CF8B
:1032D0000E941C19EBCF0895682F9091B902969522
:1032E00081E0890F853208F081E00C94321981E089
:1032F0000C946C19682F9091B90296958FEF890FF5
:1033000009F484E20C94321981E00C947A1961E09A
:103310000C943219E9EBF2E080818160808386951C
:103320000C9487198091B90280FD0C9404190C94B7
:103330008A1960E00C9432198091700281112EC0BC
:103340000E943A0E811104C00E94DF0E0E942215D5
:103350000E940C156093B9027093BA028093BB026D
:103360009093BC026E7F61F40E9422150E940C159E
:103370006093B9027093BA028093BB029093BC022F
:103380000E94FD14109272028091B90280FF03C066
:1033900086950E94991981E08093700208950F9399
:1033A0001F93CF93DF9380917202882309F486C024
:1033B00080917102E091B902E695E81BE0936C02FE
:1033C000823091F5F0E0E651FD4FE491CE2FD0E050
:1033D0000FEB15E180916D02882361F010926D0270
:1033E0000E949B2090936B0280936A0210926F025E
:1033F00010926E020E949B20E0916A02F0916B0293
:103400008E1B9F0B8F3F9F4708F058C0EC0FFD1F8E
:10341000F0936B02E0936A028AE692E0F801DF9192
:10342000CF911F910F910994863049F4F0E0E95152
:10343000FD4FE491CE2FD0E003ED15E1CBCF8930E5
:1034400051F4E695F0E0EC51FD4FE491CE2FD0E041
:103450000DE017E1BFCF8F3051F4E695F0E0EF516A
:10346000FD4FE491CE2FD0E00AE417E1B3CF8531D0
:1034700049F4F0E0E252FD4FE491CE2FD0E004ECAD
:1034800017E1A8CFC8E2D0E007E318E1883109F4DA
:10349000A1CF833239F4ECEDF2E0C591D49103EE83
:1034A00015E198CFC4EFD1E007EC18E1843209F4BC
:1034B00091CFC0EDD7E00CEE14E18CCFDF91CF912E
:1034C0001F910F910895FA01811101C0FB01099428
:1034D000CF93DF93C82FD62F0E9431158C1740F061
:1034E0000E9431158D1720F4DF91CF910C9477193C
:1034F0008C2FDF91CF910C9487191F93CF93DF937B
:10350000EC01FB011281112309F4C0C00E94770D68
:103510008272CD3CFCE5DF0709F49CC008F044C092
:10352000C73CECE5DE0709F481C0F0F4C43C9CE53F
:10353000D90709F471C048F4C33CDC4509F469C0FB
:10354000812FDF91CF911F910895C53C9CE5D9074C
:1035500009F467C04BEC56E16EEB76E1C63CDC4506
:1035600079F70E94631A53C0CA3CFCE5DF0709F4EF
:1035700067C068F4C83CECE5DE0709F45CC04AEDBE
:1035800056E169EE76E1C93CDC4559F3D9CFCB3C35
:103590009CE5D90709F459C044E655E16DE475E1AD
:1035A000CC3CDC45F1F2CCCFC23DFCE5DF0709F4B1
:1035B00062C098F4CF3C9CE5D90709F454C008F4E4
:1035C0004EC0C03DFCE5DF0709F452C0C13DDC45FB
:1035D00009F0B6CF6EE089E048C0C53D9CE5D9074B
:1035E00009F44FC058F4C33DFCE5DF0709F446C0B9
:1035F000C43DDC4509F0A4CF88E132C0C63D9CE55E
:10360000D90709F441C0CE35DD4509F099CF10E066
:1036100097CF0E949219FBCF44E859E167E779E11F
:10362000A0CF47E759E164E879E19BCF4EEB56E143
:103630006BEC76E196CF49EE56E16AED76E191CFFB
:1036400047E057E168EF76E18CCF48EF56E167E05D
:1036500077E187CF4DE455E164E675E182CF81E003
:103660000E948719D4CF65E082E00E94681ACFCF0C
:1036700068E086E0FACF64E18FE0F7CF67E185E1AB
:10368000F4CF62E289E1F1CF83E2EACF11E058CFD3
:1036900086E090E00C946728682F86E090E00C9418
:1036A0007B28ECEDF2E080818470816380830C9450
:1036B0004C1B0E943A0E811104C00E94DF0E0E9432
:1036C000511B0E94481B8093DC02883320F08770D6
:1036D00080638093DC029091DC02892F817090FFDF
:1036E00004C0892F8695869586950C94591C8091E7
:1036F000DC02982F969596959695963040F49F5FAC
:10370000990F990F990F8770892B8093DC02809114
:10371000DC0281608093DC020E944C1B8091DC0201
:103720008695869586950C94591C8091DC02982F7D
:10373000987F79F088508093DC02887F91E009F4CB
:1037400090E08091DC0290FB80F98093DC020E9483
:103750004C1B8091DC028695869586950C94591CAD
:103760008091DC0280FD13C081608093DC02813097
:1037700019F489E08093DC028091DC020E944C1BEA
:103780008091DC028695869586950C94591C089547
:103790008091DC0280FF08C08E7F8093DC020E9453
:1037A0004C1B80E00C94591C08958091DC0280FD34
:1037B0000C94C81B0C94B01B9091DC02892F869549
:1037C000869586958F5F8F7197708730D8F4880FB4
:1037D000880F880F892B8093DC028091DC02887F20
:1037E00091E009F490E08091DC0290FB80F98093F5
:1037F000DC020E944C1B8091DC02869586958695A2
:103800000C94591C9093DC02E8CF873008F086E0D6
:103810009091DC029770282F220F220F220F922BFB
:103820009093DC02987F21E009F420E09091DC0283
:1038300020FB90F99093DC020C94591C0E94051C0B
:103840008091DC020C944C1B9C01FB01828188233B
:1038500049F12E3BFCE53F07C9F040F42C3BECE579
:103860003E0769F02D3B3C4579F00895203C9CE5EE
:10387000390791F070F0213C3C4589F0089586E0CD
:103880000E941E1C80E0089580E0FACF0E94951BE4
:10389000F9CF0E94771BF6CF0E94D51BF3CF0E9471
:1038A000DC1BF0CF81E00895279A2F9808952F9878
:1038B0000895CF92DF92EF92FF92CF93C82F873077
:1038C00040F5811127C080918000877F8093800020
:1038D0000E94571C2C2F30E0AFEFBFEF0E9418283A
:1038E00026E030E040E050E00E94E827C9012C3794
:1038F00064E13607A8F469E070E00E94C027709385
:103900008D0060938C00CF91FF90EF90DF90CF906F
:103910000895C6E080918000886080938000DACFAF
:103920002A50374D4F4F5F4F942F832F722F6627AA
:1039300025EF38E241E050E00E94E82769017A0172
:10394000CA01B9010E94A2279B01AC01C701B601BF
:103950000E94A227672F782F892F9927611571055B
:1039600021E08207910559F66FEF7FEFC8CF0895E8
:103970000E94541C8AE08093800089E1809381003A
:103980008FEF9FEF90938700809386000C94591BD4
:10399000879A41B34F7751B35068EFB7F8949B01C2
:1039A000220F331F260F371F280F391F28173907FB
:1039B00041F4EFBF8FE594E00197F1F700C00000FC
:1039C0000895DC016D91CD0178E051BB000000C08D
:1039D00067FF41BB660F000000C000C000C041BBD4
:1039E00000C07A9591F7E2CF0F931F93CF93DF93A7
:1039F000C42FD22FFC0182818823C9F04093750225
:103A00000E949B20909374028093730280E28C0F3B
:103A1000883008F050C0C77081E001C0880FCA9597
:103A2000EAF7DF91CF911F910F910C9476051091D9
:103A30007502141335C080917302909174020E9434
:103A4000B320883C910560F5C0E2CD0F1D17B9F099
:103A500080E2810F883040F4177081E001C0880F48
:103A60001A95EAF70E947D05C83048F481E09D2F41
:103A7000977001C0880F9A95EAF70E947605802F0B
:103A80000E946E05C830B8F4D77081E001C0880F7D
:103A9000DA95EAF7DF91CF911F910F910C947D0594
:103AA00080E28C0F883038F4C77081E001C0880F45
:103AB000CA95EAF7EFCFDF91CF911F910F9108954B
:103AC0000F939C01CB01243F4CE5340759F1A8F436
:103AD000293DFCE53F0701F12A3D4CE53407D1F1D2
:103AE000283D3C4591F406E221EE41EE68ED7CE58F
:103AF0000E94F41C80E00F910895263FFCE53F07EB
:103B0000E9F0B0F0273F3C45F9F0FC0182818823C1
:103B100039F110927502EFCF07E225EE45EE69ED1F
:103B20007CE5E6CF06E221EE40EE64EF7CE5E0CFF7
:103B300007E225EE44EE65EF7CE5DACF06E221EE02
:103B400042EE66EF7CE5D4CF07E225EE46EE67EF66
:103B50007CE5CECF08E221E045EE6AED7CE5C8CFFA
:103B600081E0C9CFCF93DF93EC01FB0182818823F1
:103B700009F419C1C230FCE5DF07C0F1C6319CE58C
:103B8000D90730F09E012B5F3C452930310570F597
:103B90000E944D0E9093A4028093A302C031ECE5E5
:103BA000DE0709F4CFC008F05BC0C8308CE5D80749
:103BB00009F4B6C088F5C430ECE5DE0709F4A8C006
:103BC000C0F4C2308CE5D80709F49CC08091A302F0
:103BD0008260C330DC4509F498C08091A3029091C3
:103BE000A4020E945B0E0E94E00780E0DF91CF916B
:103BF00008958091A3028061C630ECE5DE0709F4E8
:103C000084C08091A3028860C730DC4508F47DC081
:103C10008091A302806279C0CC308CE5D80709F48A
:103C200089C070F48091A3028C60CA30ECE5DE0795
:103C300009F46BC008F478C08091A3028E7F65C040
:103C4000CE308CE5D80709F479C08091A3028B7F30
:103C5000CF30DC4508F459C08091A3028F7E55C057
:103C6000CC3FECE5DE0709F457C030F5C3318CE5F5
:103C7000D80709F46FC078F4C131ECE5DE0709F428
:103C800065C0C231DC4509F0A8CF0E94E0078091F1
:103C9000A3028F773AC0C5318CE5D80709F462C01A
:103CA00008F476C08091A4028160CB3FDC4509F026
:103CB00094CF8093A40291CFC115FDE5DF0709F4ED
:103CC0004DC088F48091A4028D7FCE3F9CE5D9073A
:103CD00081F38091A4028E7FCF3FDC4550F3809129
:103CE000A4028360E6CFC230FDE5DF0709F459C0C6
:103CF00008F444C080E0C330DD4509F06ECF0E9477
:103D0000E10E6BCF8091A30281608093A30265CF07
:103D10008091A3028460F9CF8091A4028260C9CF10
:103D20008091A3028064F1CF0E94E0078091A302FA
:103D30008068EBCF8091A3028D7FE7CF8091A302B3
:103D4000877FE3CF8091A3028F7DDFCF8091A30295
:103D50008F7BDBCF8091A302837FD7CF8091A4029A
:103D60008C7FA7CF8091A30282FB992790F921E055
:103D7000922790FB82F990FB83F9C7CF8091A40230
:103D8000982F909591708E7F892B90FB81F991CF20
:103D90000E94E0079091A302892F97FB87F9805832
:103DA000B4CF81E0ACCF81E021CFCF93DF93EB01A3
:103DB00086319C4511F50E94770D9A81992399F0DF
:103DC0008A7A91E009F490E090937602811109C01B
:103DD00089E20E94310D0E94C70D80E0DF91CF91F2
:103DE000089585E3F6CF80917602811104C089E2BF
:103DF0000E94380DF0CF85E3FBCF81E0EFCF9093A9
:103E00007C0280937B020895E0917B02F0917C021A
:103E1000309721F00190F081E02D099480E0089521
:103E2000E0917B02F0917C02309799F020911F0184
:103E3000222359F02091A30227FF07C0DC012C9117
:103E400011962C93119725E02C930280F381E02D9D
:103E5000099408952091790230917A022817390740
:103E600071F090937A0280937902E0917B02F09155
:103E70007C02309721F00680F781E02D09940895A7
:103E800020917702309178022817390771F09093CA
:103E9000780280937702E0917B02F0917C02309768
:103EA00021F00084F185E02D09940895FC013296FB
:103EB00080911F01882321F08091A3029EE187FF5A
:103EC00096E080E0915008F4089521912223D1F3E7
:103ED0008F5FF8CF662301F120911F012223F1F0BB
:103EE0002091A30227FF1AC0462F46954695469576
:103EF0004E3190F4677021E030E002C0220F331F92
:103F00006A95E2F7840F911DFC01828190E02823DD
:103F1000392381E0232B69F480E00895FC01329677
:103F200008962191261721F0E817F907D1F7F4CF69
:103F300081E008959C01FC0132969FEF80E0419161
:103F4000461751F09F3F19F4411101C0982F8F5F20
:103F50008630A9F79F3F09F40895290F311D97FD79
:103F60003A95F90162830895FC01329608962191F1
:103F7000261303C0DF0111971C92E817F907B9F760
:103F80000895E62FE695E695E695EE3168F4E80F9C
:103F9000F92FF11D677021E030E001C0220F6A9512
:103FA000EAF78281822B82830895E62FE695E695D3
:103FB000E695EE3170F4E80FF92FF11D677021E0FE
:103FC00030E001C0220F6A95EAF72095828128230C
:103FD0002283089520911F01222329F02091A3021A
:103FE00027FD0C94C11F0C949A1F20911F012223BE
:103FF00029F02091A30227FD0C94D51F0C94B41F27
:10400000FC01329680911F01882351F08091A30218
:1040100087FF06C08EE1DF011D928A95E9F70895BA
:1040200086E0F9CF0895089508950C9414208091A6
:10403000E502843061F10E94152080E00E94591C45
:1040400080E00E942E0410927D0288E190E020E43E
:104050000FB6F894A895809360000FBE209360007F
:1040600083B7817F846083BF83B7816083BF789487
:10407000889583B78E7F83BF0FB6F894A8958091FB
:104080006000886180936000109260000FBE089508
:104090000895CF930E9413200E9411130E9448207C
:1040A000C0E08C2F0E942512892B31F4CF5FC530E0
:1040B000C1F780E0CF91089581E0FCCF08950C9482
:1040C0005E200E94E0070E94591B0E94041F0E946C
:1040D0002E040C945F201F921FB61F9211248F9301
:1040E0009F93AF93BF9380917D02811113C0809104
:1040F000DD029091DE02A091DF02B091E0024196D4
:10410000A11DB11D8093DD029093DE02A093DF021A
:10411000B093E002BF91AF919F918F911F901FBE0E
:104120001F90189582E084BD93E095BD9AEF97BDEE
:1041300080936E0008952FB7F8948091DD029091DE
:10414000DE02A091DF02B091E0022FBF08952FB7E9
:10415000F8946091DD027091DE028091DF0290910F
:10416000E0022FBF08959C014FB7F8948091DD02C3
:104170009091DE02A091DF02B091E0024FBF821B5E
:10418000930B089578941F921FB61F9211248F935A
:104190009F93AF93BF938091DD029091DE02A09137
:1041A000DF02B091E0020196A11DB11D8093DD02F6
:1041B0009093DE02A093DF02B093E002BF91AF9133
:1041C0009F918F911F901FBE1F90189581E0809343
:1041D000E00080E28093D8001092C9008FE19EE455
:1041E0000197F1F700C0000087E090EBDC018093BD
:1041F000EE029093EF02A093F002B093F10288E1F7
:104200009CE00FB6F894A895809360000FBE909341
:104210006000FFCF9093BB018093BA010895809115
:10422000A10208959091E502943031F580937E02C9
:104230007093800260937F0282E08093E9008FEFA9
:104240009091E800815095FD06C095ED9A95F1F7A3
:1042500000008111F5CF8091E80085FF0DC050E08E
:1042600040E063E070E08EE792E00E9411238091CD
:10427000E8008E778093E8000895BC0184E00C94F8
:104280001221BC0183E00C941221CF93DF93EC0147
:1042900080911F018823B1F18091A30287FF32C072
:1042A00060E282E08093E9008FEF9091E800815016
:1042B00095FD06C095ED9A95F1F700008111F5CFB7
:1042C0008091E80085FF1BC080911F0170E050E0E5
:1042D00040E0811104C050E040E068E070E0CE01B1
:1042E0000E9411238091E8008E778093E80080E29D
:1042F000FE01A1E8B2E001900D928A95E1F7DF910D
:10430000CF91089568E081E0CDCF08958091E402D7
:10431000811109C00E94A1240E94FE248091E20024
:1043200084608093E20008951092E4020895089555
:104330000895089542E061EC81E00E941D2442E26C
:1043400061EC82E00C941D248091E702833009F433
:104350005FC030F48130C1F1823009F49BC0089510
:104360008A3009F487C08B3009F46DC0893009F0B8
:104370004EC08091E602813209F049C08091EA0284
:104380009091EB02029708F042C08091E800877F8D
:104390008093E8008091E80082FF35C09091F3009F
:1043A0008091F200029729F48091F1008B7F813097
:1043B00021F48091F1008093A1028091E8008B7735
:1043C0008093E8000C9451248091E602813AF9F43C
:1043D0008091E800877F8093E8008091EA029091C5
:1043E000EB02892B61F460E281E892E070E00E94C8
:1043F00060238091E8008B778093E800089560E067
:1044000090E080E0F3CF8091E5028111C3CF089561
:104410008091E602813AD9F78091EA029091EB020D
:10442000892BA9F78091E800877F8093E80080912D
:10443000E80080FFFCCF80911F018093F100809104
:10444000E8008E77BDCF8091E602813201F780913E
:10445000EA029091EB02892BD1F68091E800877FE8
:104460008093E8000E9451248091E80280931F010C
:104470000C94E0078091E602813249F68091E800D1
:10448000877F8093E8000E9451248091E902809305
:10449000A20208958091E602813A09F0B8CF809196
:1044A000E800877F8093E8008091E80080FFFCCFE0
:1044B0008091A202C2CF84B7877F84BF0FB6F894E1
:1044C000A8958091600088618093600010926000E0
:1044D0000FBE80E890E00FB6F8948093610090934F
:1044E00061000FBE0C94070F0E94A1240E94FE24BD
:1044F000E2EEF0E080818460808378940E948727D8
:104500000E941B0F85E191E00C94FF1E8091E50253
:10451000853031F48091E502853021F00E946120E0
:104520000C94250F0E9417208091E302882391F3B9
:104530000E944920882371F30E94FB220E94E00719
:10454000E9CF0C94A322292F33272330310519F109
:1045500068F42130310509F444C02230310509F4F2
:1045600045C090E080E030E020E025C021323105F8
:1045700049F122323105A9F780E490E023EE35E0DD
:1045800061157105C1F08DE690E026E735E06130F8
:10459000710589F0E6CF99278130910581F0009768
:1045A00029F00297F1F6E3EFF4E002C0E5E2F5E06E
:1045B000849190E09F01FA01318320830895E5E022
:1045C000F5E0F6CF89E090E02BE335E06115710569
:1045D00091F389E090E024E535E06130710559F30D
:1045E000C0CF82E190E024E635E0E5CF8BE390E0B8
:1045F00029E235E0E0CF80E189BD82E189BD09B4DF
:1046000000FEFDCF8091D8008F7D8093D8008091EF
:10461000E00082608093E0008091E00081FDFCCFAB
:104620000895AF92BF92CF92DF92FF920F931F93A4
:10463000CF93DF936C01EB018A010E947024F82E66
:10464000811123C00115110539F0F8018081918194
:10465000C81BD90BC80ED91EB12CA12C2097A9F0CC
:104660008091E80085FD22C08091E8008E778093DC
:10467000E80001151105A1F0F80180819181A80ED3
:10468000B91EB182A08285E0F82E8F2DDF91CF91E7
:104690001F910F91FF90DF90CF90BF90AF90089542
:1046A0000E9470248823D1F2F82EEFCFF601819179
:1046B0006F018093F1002197FFEFAF1ABF0ACECFB1
:1046C000FC018091EC029091ED0286179707A0F013
:1046D0006115710529F49091E8009E779093E800A8
:1046E00090E06115710551F4911108C08091E800C6
:1046F00082FF34C080E00895BC01F2CF8091E502D2
:104700008823C1F18530C1F18091E80083FD30C07C
:104710008091E80082FDEACF8091E80080FFE1CF40
:104720008091F3002091F200382F6115710519F086
:104730002830310558F091E02830310509F090E03B
:104740002091E8002E772093E800CBCF81918093D1
:10475000F100615071092F5F3F4FE7CF8091E50273
:10476000882341F0853041F08091E80083FFBECF7F
:1047700081E0089582E0089583E00895FC0180912E
:10478000EC029091ED0286179707A0F06115710574
:1047900029F48091E8008E778093E80090E061151D
:1047A000710551F4911108C08091E80082FF35C075
:1047B00080E00895BC01F2CF8091E5028823C9F121
:1047C0008530C9F18091E80083FD31C08091E80017
:1047D00082FDEACF8091E80080FFE1CF8091F30075
:1047E0002091F200382F6115710519F0283031053C
:1047F00058F091E02830310509F090E08091E80010
:104800008E778093E800CBCF84918093F10031962E
:10481000615071092F5F3F4FE6CF8091E5028823F9
:1048200041F0853041F08091E80083FFBDCF81E009
:10483000089582E0089583E00895982F973028F036
:104840008F708093E90081E008959093E900242F10
:10485000762F50E0981731F07091EC002091ED0028
:104860005091F00021FD02C09F5FE8CF3091EB0036
:104870003E7F3093EB003091ED003D7F3093ED00B3
:104880003091EB0031603093EB007093EC0020939B
:10489000ED005093F0002091EE0027FDE5CF80E081
:1048A00008958091E60287FF13C08091E80082FF9F
:1048B00006C08091E8008B778093E80004C0809167
:1048C000E5028111F2CF08958091E5028823D9F3A2
:1048D0008091E80080FFF8CF8091E8008E77ECCFE0
:1048E0002091E4003091E50095E6A9012091EC00CB
:1048F000822F817020FF06C08091E80080FF06C0F3
:1049000080E008952091E80022FD1AC08091E50220
:10491000882389F0853089F08091EB0085FD0FC0F8
:104920002091E4003091E50042175307F9F29150CD
:10493000E1F684E0089582E0089583E0089581E03F
:1049400008950E940F250E941725E0EEF0E0808177
:1049500081608083E8EDF0E080818F77808319BCEF
:10496000A7EDB0E08C918E7F8C9380818F7E8083C9
:104970001092E40208950F931F93CF93DF930E9448
:104980000F250E941725C8EDD0E088818F77888396
:1049900088818068888388818F7D888319BC109284
:1049A000E5021092E1021092E3021092E20200EEA0
:1049B00010E0F80180818B7F80838881816088830B
:1049C00042E060E080E00E941D24E1EEF0E08081A2
:1049D0008E7F8083E2EEF0E0808181608083808141
:1049E00088608083F80180818E7F808388818061E8
:1049F0008883DF91CF911F910F910895E8EDF0E04A
:104A000080818F7E8083E7EDF0E08081816080830C
:104A100084E082BF81E08093E4020C94BB24E8ED43
:104A2000F0E080818E7F80831092E20008951092E2
:104A3000DA001092E10008951F920F920FB60F92C4
:104A400011242F933F934F935F936F937F938F9393
:104A50009F93AF93BF93EF93FF938091E10082FF09
:104A60000BC08091E20082FF07C08091E1008B7F44
:104A70008093E1000E9486278091DA0080FF19C0B0
:104A80008091D80080FF15C08091DA008E7F8093DE
:104A9000DA008091D90080FF96C080E189BD82E173
:104AA00089BD09B400FEFDCF81E08093E5020E943C
:104AB00086218091E10080FF19C08091E20080FF93
:104AC00015C08091E2008E7F8093E2008091E20029
:104AD00080618093E2008091D80080628093D8004A
:104AE00019BC85E08093E5020E9498218091E10045
:104AF00084FF2BC08091E20084FF27C080E189BD44
:104B000082E189BD89B5982F917080FFFBCF80919C
:104B1000D8008F7D8093D8008091E1008F7E8093B4
:104B2000E1008091E2008F7E8093E2008091E200BC
:104B300081608093E2008091E102882309F449C0FA
:104B400084E08093E5020E9499218091E10083FF37
:104B500029C08091E20083FF25C08091E100877F1A
:104B60008093E10082E08093E5021092E10280915F
:104B7000E1008E7F8093E1008091E2008E7F809340
:104B8000E2008091E20080618093E20042E060E018
:104B900080E00E941D248091F00088608093F000E6
:104BA0000E949721FF91EF91BF91AF919F918F91BB
:104BB0007F916F915F914F913F912F910F900FBE19
:104BC0000F901F90189519BC1092E5020E94942135
:104BD00070CF8091E30087FD93E09093E502B3CF1F
:104BE0001F920F920FB60F9211242F933F934F9362
:104BF0005F936F937F938F939F93AF93BF93CF9365
:104C0000DF93EF93FF93D091E900DF708091EC0088
:104C1000C82FC17080FDC0E81092E9008091F000BB
:104C2000877F8093F00078940E9434261092E900E8
:104C30008091F00088608093F000CD2BCF70C093FE
:104C4000E900FF91EF91DF91CF91BF91AF919F91DB
:104C50008F917F916F915F914F913F912F910F9025
:104C60000FBE0F901F9018951F93CF93DF93CDB772
:104C7000DEB7AA970FB6F894DEBF0FBECDBF86EEA3
:104C800092E02091F100FC012193CF01F2E08E3EF1
:104C90009F07B9F70E94A4218091E80083FF1EC1FD
:104CA0008091E6029091E7029A3008F017C1E92F4F
:104CB000F0E0E25FF64D0C940A28803899F08238D3
:104CC00009F00CC18091EA028F70873008F006C1AC
:104CD0008093E9008091EB0085FB882780F9109292
:104CE000E90006C08091E2029091E3029111826096
:104CF0009091E800977F9093E8008093F1001092E4
:104D0000F1008091E8008E77E5C0882309F4D3C0D4
:104D1000823009F0E3C08091E8028111D6C0809111
:104D2000EA028F702FEF280F263008F0D7C080934B
:104D3000E9002091EB0020FFC8C0933031F480914E
:104D4000EB0080628093EB00C0C09091EB0090611B
:104D50009093EB0021E030E001C0220F8A95EAF742
:104D60002093EA001092EA008091EB008860EACF7D
:104D70008111B4C01091E8021F778091E300807820
:104D8000812B8093E3008091E800877F8093E80087
:104D90000E9451248091E80080FFFCCF8091E300C5
:104DA00080688093E30082E0111183E08093E50244
:104DB00095C08058823008F091C08091E8029091AF
:104DC000E9028C3D23E09207A1F583E08A838AE221
:104DD00089834FB7F894DE01139620E03EE051E25C
:104DE000E32FF0E050935700E49120FF03C0E295D9
:104DF000EF703F5FEF708E2F90E0EA30C0F0C79603
:104E00008D939D932F5F243159F74FBF8091E80018
:104E1000877F8093E8006AE270E0CE0101960E94ED
:104E200060238091E8008B778093E80057C0C0969C
:104E3000E7CF6091EA027091EB02AE014F5F5F4FE6
:104E40000E94A122BC01892B09F448C09091E8007E
:104E5000977F9093E80089819A810E94BE23E1CFD9
:104E60008038E1F58091E800877F8093E8008091A9
:104E7000E1028093F10045CF811130C09091E802AA
:104E8000923060F58091E800877F8093E8009093EE
:104E9000E1020E9451248091E102882311F084E014
:104EA00005C08091E30087FDFACF81E08093E502A1
:104EB0000E949A2113C08091E802813079F481E048
:104EC000933009F080E08093E3021092E900809132
:104ED000E800877F8093E8000E9451248091E800D9
:104EE00083FF0AC08091E800877F8093E80080916B
:104EF000EB0080628093EB00AA960FB6F894DEBFB9
:104F00000FBECDBFDF91CF911F9108950895CF932C
:104F10008091E5028823A1F0C091E900CF709091C3
:104F2000EC00892F817090FD80E8C82B1092E90079
:104F30008091E80083FD0E943426CF70C093E90081
:104F4000CF910895DB018F939F930E942E28BF91EC
:104F5000AF91A29F800D911DA39F900DB29F900DC8
:104F60001124089587FB082E062687FD819567FD8D
:104F700061950E9441280EF4919507FC8195089552
:104F8000AA1BBB1B51E107C0AA1FBB1FA617B7076F
:104F900010F0A61BB70B881F991F5A95A9F780958B
:104FA0009095BC01CD01089597FB072E16F400944F
:104FB00007D077FD09D00E94C02707FC05D03EF43A
:104FC000909581959F4F0895709561957F4F0895B5
:104FD000A1E21A2EAA1BBB1BFD010DC0AA1FBB1FFD
:104FE000EE1FFF1FA217B307E407F50720F0A21B6F
:104FF000B30BE40BF50B661F771F881F991F1A94DC
:1050000069F760957095809590959B01AC01BD0105
:10501000CF010895EE0FFF1F0590F491E02D099444
:105020000E941828332312F48A1B9B0B0C94292806
:10503000A29FB001B39FC001A39F700D811D1124D9
:10504000911DB29F700D811D1124911D08950E9424
:105050001828B7FF0895821B930B08950E94182803
:10506000A59F900DB49F900DA49F800D911D1124BC
:105070000895B7FF0C942E280E942E28821B930BB4
:105080000895991B79E004C0991F961708F0961BA4
:10509000881F7A95C9F780950895FC0141505040CA
:1050A00030F001900616D1F73197CF010895882787
:1050B00099270895FB01DC0104C08D9101908019AE
:1050C00021F441505040C8F7881B990B0895F99975
:1050D000FECF92BD81BDF89A992780B50895A6E1CB
:1050E000B0E044E050E00C94A128A8E1B0E042E038
:1050F00050E00C94A128262FF999FECF92BD81BDD6
:10510000F89A019700B4021639F01FBA20BD0FB605
:10511000F894FA9AF99A0FBE08950396272F0E94E1
:105120007C280E947B28252F0E947C28242F0C9409
:105130007C280196272F0E947C280C947B28DC0178
:10514000CB01FC01F999FECF06C0F2BDE1BDF89A92
:10515000319600B40D9241505040B8F70895F8943C
:10516000FFCFB805B805100610066206E505E5058F
:10517000E5057E060A07190719077507E505E50520
:105180007E07EF07EF07F807F807FA07F807F807B1
:10519000F807EF07EF07FF07F807F807FF07CF1338
:1051A000C613D213C41317141714C41317141714E7
:1051B000EE131714F91304141714171417141714F3
:1051C000C41317141714C4131714E0131714171467
:1051D0001514151415141514151415141514151487
:1051E00015140F141714CF13C21317141714171410
:1051F00017141714171417141714171417140F145F
:1052000017141714C41317141314131413141314AA
:10521000131413141314131413140F145D2685267A
:105220006E2785266E27B826D9266E2730273C277D
:105230002C02010102000A000A0A01191A1B1C1D96
:105240001E1F2021220F214521852141213D2101C1
:10525000E200E900EA00B500B600B700CD00830126
:10526000CC008A019201940121022302240225022A
:10527000260227022A02B300B4006F007000818268
:1052800083E200E900EA00B500B600B700CD008374
:1052900001CC008A019201940121022302240225FB
:1052A00002260227022A02B300B4006F00700081B8
:1052B0008283F0F1C667663694313235349796337F
:1052C00090919293950001020202020606060909D6
:1052D000090909090F0F0F0F0F0F151515181919C7
:0A52E00019191919191919192324B5
:00000001FF
